:020000040000fa
:080000000002040000000000f2
:020000040000fa
:04000800ac04000044
:020000040000fa
:04000c00ac04000040
:020000040000fa
:04001000ac0400003c
:020000040000fa
:04001400ac04000038
:020000040000fa
:04001800ac04000034
:020000040000fa
:04001c00ac04000030
:020000040000fa
:04002000ac0400002c
:020000040000fa
:04002400ac04000028
:020000040000fa
:04002800ac04000024
:020000040000fa
:04002c00ac04000020
:020000040000fa
:04003000ac0400001c
:020000040000fa
:040034001e040000a6
:020000040000fa
:04003800ac04000014
:020000040000fa
:04003c00ac04000010
:020000040000fa
:04004000ac0400000c
:020000040000fa
:04004400860400002e
:020000040000fa
:04004800ac04000004
:020000040000fa
:04004c00ac04000000
:020000040000fa
:04005000ac040000fc
:020000040000fa
:040054007003000035
:020000040000fa
:04005800ca030000d7
:020000040000fa
:04005c00ac040000f0
:020000040000fa
:04006000ac040000ec
:020000040000fa
:04006400ac040000e8
:020000040000fa
:04006800ac040000e4
:020000040000fa
:04006c00ac040000e0
:020000040000fa
:04007000ac040000dc
:020000040000fa
:04007400ac040000d8
:020000040000fa
:04007800ac040000d4
:020000040000fa
:04007c00ac040000d0
:020000040000fa
:04008000ac040000cc
:020000040000fa
:04008400ac040000c8
:020000040000fa
:04008800ac040000c4
:020000040000fa
:04008c00ac040000c0
:020000040000fa
:04009000ac040000bc
:020000040000fa
:04009400ac040000b8
:020000040000fa
:04009800ac040000b4
:020000040000fa
:04009c00ac040000b0
:020000040000fa
:0400a000ac040000ac
:020000040000fa
:0400a400ac040000a8
:020000040000fa
:0400a800ac040000a4
:020000040000fa
:0400ac00ac040000a0
:020000040000fa
:0400b000ac0400009c
:020000040000fa
:0400b400ac04000098
:020000040000fa
:0400b800ac04000094
:020000040000fa
:0400bc00ac04000090
:020000040000fa
:0400c000ac0400008c
:020000040000fa
:0400c400ac04000088
:020000040000fa
:0400c800ac04000084
:020000040000fa
:0400cc00ac04000080
:020000040000fa
:0400d000ac0400007c
:020000040000fa
:0400d400ac04000078
:020000040000fa
:0400d800ac04000074
:020000040000fa
:0400dc00ac04000070
:020000040000fa
:0400e000ac0400006c
:020000040000fa
:0400e400ac04000068
:020000040000fa
:0400e800ac04000064
:020000040000fa
:0400ec00ac04000060
:020000040000fa
:0400f000ac0400005c
:020000040000fa
:0400f400ac04000058
:020000040000fa
:0400f800ac04000054
:020000040000fa
:0400fc00ac04000050
:020000040000fa
:04010000ac0400004b
:020000040000fa
:04010400ac04000047
:020000040000fa
:04010800ac04000043
:020000040000fa
:04010c00ac0400003f
:020000040000fa
:04011000ac0400003b
:020000040000fa
:04011400ac04000037
:020000040000fa
:04011800ac04000033
:020000040000fa
:04011c00ac0400002f
:020000040000fa
:04012000ac0400002b
:020000040000fa
:04012400ac04000027
:020000040000fa
:04012800ac04000023
:020000040000fa
:04012c00ac0400001f
:020000040000fa
:04013000ac0400001b
:020000040000fa
:04013400ac04000017
:020000040000fa
:04013800ac04000013
:020000040000fa
:04013c00ac0400000f
:020000040000fa
:04014000ac0400000b
:020000040000fa
:04014400ac04000007
:020000040000fa
:04014800ac04000003
:020000040000fa
:04014c00ac040000ff
:020000040000fa
:04015000ac040000fb
:020000040000fa
:04015400ac040000f7
:020000040000fa
:04015800ac040000f3
:020000040000fa
:04015c00ac040000ef
:020000040000fa
:04016000ac040000eb
:020000040000fa
:04016400ac040000e7
:020000040000fa
:04016800ac040000e3
:020000040000fa
:04016c00ac040000df
:020000040000fa
:04017000ac040000db
:020000040000fa
:04017400ac040000d7
:020000040000fa
:04017800ac040000d3
:020000040000fa
:04017c00ac040000cf
:020000040000fa
:04018000ac040000cb
:020000040000fa
:04018400ac040000c7
:020000040000fa
:04018800ac040000c3
:020000040000fa
:04018c00ac040000bf
:020000040000fa
:04019000ac040000bb
:020000040000fa
:04019400ac040000b7
:020000040000fa
:04019800ac040000b3
:020000040000fa
:04019c00ac040000af
:020000040000fa
:04020800ac04000042
:020000040000fa
:04020c00ac0400003e
:020000040000fa
:04021000ac0400003a
:020000040000fa
:04021400ac04000036
:020000040000fa
:04021800ac04000032
:020000040000fa
:04021c00ac0400002e
:020000040000fa
:04022000ac0400002a
:020000040000fa
:04022400ac04000026
:020000040000fa
:04022800ac04000022
:020000040000fa
:04022c00ac0400001e
:020000040000fa
:04023000ac0400001a
:020000040000fa
:040234001e040000a4
:020000040000fa
:04023800ac04000012
:020000040000fa
:04023c00ac0400000e
:020000040000fa
:04024000ac0400000a
:020000040000fa
:04024400860400002c
:020000040000fa
:04024800ac04000002
:020000040000fa
:04024c00ac040000fe
:020000040000fa
:04025000ac040000fa
:020000040000fa
:040254007003000033
:020000040000fa
:04025800ca030000d5
:020000040000fa
:04025c00ac040000ee
:020000040000fa
:04026000ac040000ea
:020000040000fa
:04026400ac040000e6
:020000040000fa
:04026800ac040000e2
:020000040000fa
:04026c00ac040000de
:020000040000fa
:04027000ac040000da
:020000040000fa
:04027400ac040000d6
:020000040000fa
:04027800ac040000d2
:020000040000fa
:04027c00ac040000ce
:020000040000fa
:04028000ac040000ca
:020000040000fa
:04028400ac040000c6
:020000040000fa
:04028800ac040000c2
:020000040000fa
:04028c00ac040000be
:020000040000fa
:04029000ac040000ba
:020000040000fa
:04029400ac040000b6
:020000040000fa
:04029800ac040000b2
:020000040000fa
:04029c00ac040000ae
:020000040000fa
:0402a000ac040000aa
:020000040000fa
:0402a400ac040000a6
:020000040000fa
:0402a800ac040000a2
:020000040000fa
:0402ac00ac0400009e
:020000040000fa
:0402b000ac0400009a
:020000040000fa
:0402b400ac04000096
:020000040000fa
:0402b800ac04000092
:020000040000fa
:0402bc00ac0400008e
:020000040000fa
:0402c000ac0400008a
:020000040000fa
:0402c400ac04000086
:020000040000fa
:0402c800ac04000082
:020000040000fa
:0402cc00ac0400007e
:020000040000fa
:0402d000ac0400007a
:020000040000fa
:0402d400ac04000076
:020000040000fa
:0402d800ac04000072
:020000040000fa
:0402dc00ac0400006e
:020000040000fa
:0402e000ac0400006a
:020000040000fa
:0402e400ac04000066
:020000040000fa
:0402e800ac04000062
:020000040000fa
:0402ec00ac0400005e
:020000040000fa
:0402f000ac0400005a
:020000040000fa
:0402f400ac04000056
:020000040000fa
:0402f800ac04000052
:020000040000fa
:0402fc00ac0400004e
:020000040000fa
:04030000ac04000049
:020000040000fa
:04030400ac04000045
:020000040000fa
:04030800ac04000041
:020000040000fa
:04030c00ac0400003d
:020000040000fa
:04031000ac04000039
:020000040000fa
:04031400ac04000035
:020000040000fa
:04031800ac04000031
:020000040000fa
:04031c00ac0400002d
:020000040000fa
:04032000ac04000029
:020000040000fa
:04032400ac04000025
:020000040000fa
:04032800ac04000021
:020000040000fa
:04032c00ac0400001d
:020000040000fa
:04033000ac04000019
:020000040000fa
:04033400ac04000015
:020000040000fa
:04033800ac04000011
:020000040000fa
:04033c00ac0400000d
:020000040000fa
:04034000ac04000009
:020000040000fa
:04034400ac04000005
:020000040000fa
:04034800ac04000001
:020000040000fa
:04034c00ac040000fd
:020000040000fa
:04035000ac040000f9
:020000040000fa
:04035400ac040000f5
:020000040000fa
:04035800ac040000f1
:020000040000fa
:04035c00ac040000ed
:020000040000fa
:04036000ac040000e9
:020000040000fa
:04036400ac040000e5
:020000040000fa
:04036800ac040000e1
:020000040000fa
:04036c00ac040000dd
:020000040000fa
:04037000ac040000d9
:020000040000fa
:04037400ac040000d5
:020000040000fa
:04037800ac040000d1
:020000040000fa
:04037c00ac040000cd
:020000040000fa
:04038000ac040000c9
:020000040000fa
:04038400ac040000c5
:020000040000fa
:04038800ac040000c1
:020000040000fa
:04038c00ac040000bd
:020000040000fa
:04039000ac040000b9
:020000040000fa
:04039400ac040000b5
:020000040000fa
:04039800ac040000b1
:020000040000fa
:04039c00ac040000ad
:020000040000fa
:10040000af1721000e7f24000e01880000000000bd
:10041000000020000000e000020032000001200087
:100420002002880014000700c20107000000e0005d
:1004300003003a0000732d00010020000200370085
:100440000000200001002000810f70000100320038
:1004500014000700000020000000e000020032004d
:10046000000002000000000018ab020000000000c5
:100470000040da000000fe004440a900a04624002d
:100480000000e0000300320000002000a00188000e
:100490004440a800000006008a1f78008b1f7800e7
:1004a0000000060091018800800478000000eb0045
:1004b0001a003700e284440032a0b4009905ba0063
:1004c000e284440032a0b4009906ba00e2844400f9
:1004d00032a0b4000006eb00476fde00fd07b2005b
:1004e000636ce10003003a00ebff07000000eb0043
:1004f0000a003700606ce10004003a00005deb0088
:100500008b05e900fdff3e00040037006168e10053
:10051000010032000086eb000b00070019c7ba008b
:100520001905ba000e04e00003003a000a00e000da
:10053000e0ff3a0000000600fe07b2009e018800be
:100540008a047800f5ff3700395dba008b05e900b1
:100550000c003200295dba008b05e900080032006a
:100560000c00e00003003a00e284440032a0b40032
:10057000f5ff370019ddba008b05e900faff3a00f4
:100580008904e800e184440032a0b40000000600c1
:100590000ca80400000000008ca80400000000006b
:1005a000b08b040000000000f6c904000000000049
:1005b00058d30400000000003cca04000000000002
:1005c00082ca040000000000e08d0400000000006a
:1005d000629e040000000000809e040000000000f5
:1005e000ca7c040000000000e27c0400000000005f
:1005f000fc7c0400000000001c7d040000000000e2
:100600000aaf0400000000002aaf04000000000050
:10061000948a04000000000074e704000000000059
:100620003eb50400000000004ab5040000000000d0
:1006300082b604000000000074b504000000000051
:1006400098b5040000000000dab6040000000000c5
:10065000c2b5040000000000ceb504000000000098
:1006600020b704000000000016b6040000000000df
:100670003ab60400000000007ab704000000000051
:100680009eb6040000000000a8cb0400000000009b
:1006900064e7040000000000ce0504000000000034
:1006a000fa050400000000001e0b0400000000001a
:1006b000380b040000000000660b0400000000007e
:1006c000040d040000000000300d040000000000d4
:1006d000141b0400000000000000040000000000e3
:1006e000809fbe00821f78003400f80000002000c8
:1006f000a00188000400fa008560a9003011800084
:10070000004f780061738000110798009e009000f0
:10071000f0072000808f500019003c001e00900060
:100720000000e800100798009e00900061738800a8
:1007300051738000110798009e4078001e019000c0
:10074000e0e6200000004100014878001e00900013
:100750000000e800100798009e009000f0072800b5
:10076000008060000000e00004003d000000e9009f
:1007700001f82f00008070000000e800507388002e
:100780000080fa003400f9004f0178004f00be00ed
:1007900000400600809fbe00821f78003400f800f1
:1007a00000002000a00188000200fa008580a90056
:1007b000316f8000010f78001e0078000000e0001b
:1007c000180032001e0fe9001e017800326f880009
:1007d000116f8000010f78001e017800e6004100d3
:1007e00020de200000804000104078000000fb0068
:1007f000201188001e0fe8009e007800f0072800f6
:10080000008060000000e00004003d000000e900fe
:1008100001f82f00008070000000e800106f8800d1
:10082000010037005c28ef000080fa003400f90076
:100830004f0178004f00be0000400600809fbe00c0
:100840003400f80000002000a00188000000fa0039
:100850008460a900604280000000e80060428800d7
:1008600061428000703e2000808f500003003600ff
:100870004c28ef0010c0b3004ee8b70061168000ae
:1008800000102000008060000000e00010003a002e
:10089000404280000000e800404288004142800061
:1008a000700c2000808f5000140036004142800000
:1008b000800c2000808f500002003a0010c0b3006e
:1008c0005fe8b700900c2000404288000b00370022
:1008d00040428000e20f5000070036004142800095
:1008e000700c2000808f500003003e0010c0b30049
:1008f0005ee8b7004828ef004828ef000080fa00c3
:100900003400f9004f00be00004006003600f80039
:10091000809fbe00829fbe00849fbe00869fbe0057
:100920003400f80000002000a00188000000fa0058
:1009300084e0a900634f07000080fa003400f9004a
:100940004f03be004f02be004f01be004f00be006d
:100950003600f900004006000040da000000fe000a
:100960000a00fa0011002000b1bf9f00c0bf9f0025
:100970006a805700fa0d07004fb897000080fa0010
:10098000000006000a00fa00e20f500034003e00aa
:10099000b08b8000e10f500003003200e20f5000e6
:1009a00011003a000c003700032220000300e00091
:1009b00001003a000040da002002e20002003500a7
:1009c0002822ef0021e2a8002342ab000d003a00ec
:1009d0002342a8000b003700032320000300e0009f
:1009e00001003a000040da003002e2000200350067
:1009f0003822ef0031e2a8003342ab0001003a0098
:100a00003342a800820178000b0037003102fb005e
:100a1000e10f500004003a002322ab00feff3a0031
:100a200024118800030037003322ab00feff3a0098
:100a3000a41188008301e9000300e000f3ff3a00fd
:100a4000e10f500003003a002302ab00feff32002a
:100a50000b0037003302ab00feff32000800370006
:100a600033002000b3bf9f00c0bf9f00d1bf9f00d5
:100a7000e2bf9f006a805700bb0d07006fb9970067
:100a8000020078000080fa00000006000a00fa0068
:100a900051002000b1bf9f00c0bf9f006a80570077
:100aa000b30d07005fb897000080fa000000060051
:100ab000889fbe0080047800c08b80000000e000aa
:100ac00004003a000e0007000084eb000000e00084
:100ad00008003500c88b80000900e00005003200e6
:100ae00009004400060007000000e00001003d008e
:100af0000084eb00080078004f04be0000000600f0
:100b0000800078000100e00003003a0000002000af
:100b1000c08b8800000005000080eb000200200070
:100b2000828f500002003e00c18b88000000eb0065
:100b30000000060000000500800178000200370078
:100b4000b15978000201e9000200e000fcff3a0020
:100b5000000006008001780002003700815978000b
:100b60000201e9000200e000fcff3a00000006007c
:100b700061f12000c4040700800078000080eb00d1
:100b80000100e0000400350061f12000a000200019
:100b9000720207004f80de0000000600889fbe0042
:100ba0000004780001007800820478008801780051
:100bb0000901780011002000fb040700890f500094
:100bc000010032000004eb00080078004f04be0072
:100bd000000006000000fa00e88157004fb99700b6
:100be00061f12000e05c2000cc0007000080fa00ea
:100bf00000000600889fbe00000478000203be00cb
:100c00008104780008027800890178001200200031
:100c10000600be00c5090700890f50000100320020
:100c20000004eb00080078004f04be00000006003e
:100c30006800fa00889fbe008a9fbe00800478008a
:100c400001047800820578000305780084007800ac
:100c500000f92f000f00400076020700d98f9f0097
:100c6000fb8f9f000000eb00a09f9f00e88f9f007c
:100c70009a84fb000904fb008904ea00cf4cde00e3
:100c800050022000800f54000d003200e18f54000c
:100c90000b003a00090178008a0078007f889700ed
:100ca000df89970003000100f08f9f000000e00043
:100cb000950032002f9897000000e800a09f9f0049
:100cc0000905450050022000800f54000400320046
:100cd0000800e000e6ff3a002f9897008b003700ed
:100ce0000000eb00809f9f00f0979f00e0979f001f
:100cf000d0979f00c0979f00b0979f0007003700d4
:100d0000c10f21000100500000004000010f210030
:100d100061007800cf98970001007000c09f9f008d
:100d20000a04780008057800ba4478008900fb00be
:100d3000c00f2100300207000000e000f0ff3a0081
:100d4000a1c2b30081cf54000e003a008f889700f3
:100d50000180e900808f9f0010007800b09f9f0005
:100d60000000e00005003d000000ea00b09f9f0089
:100d70004f9897000020a000c09f9f000804e80043
:100d800010003700b09f9f00880078000000eb0043
:100d900005003700f3ff2700830f500002003200e8
:100da0006a02b9000400410001047800880078005c
:100db0003101fb000203b100e90f5100f5ff3600dd
:100dc000b09f9f00e0c2b300984f100002003200b5
:100dd0000080eb0019003700a0c2b300d84f10000c
:100de00007003a008f8897000180e900808f9f00fc
:100df00010007800909f9f000804e8001000370062
:100e00000000eb00909f9f008800780005003700ed
:100e1000f3ff2700830f5000020032006a02b9007e
:100e20000400410001047800880078003101fb00d3
:100e30000203b100e90f5100f5ff3600909f9f00bb
:100e4000984478008900fb00800e2100ea01070029
:100e50000000e000020032000804e8000100370052
:100e60008044eb00a97f9f0080c6b30080cf540070
:100e700006003a0098cf140010003a006640500077
:100e8000a07f9f000804e8000c003700c0c6b30034
:100e900080cf540009003a0098cf140007003a00b0
:100ea00067404000d84f100002003a006e405000ea
:100eb0000100370010c7b300a07f9f00c3fb2f00c5
:100ec0008f8141001841780001f92f008f80400088
:100ed00020f92f000f004000150007000000e0007f
:100ee00009003a00c1fb2f008f80400020f92f003d
:100ef0000f004000330807000000e000020035004a
:100f00000805e8005aff37000080eb004f05be00df
:100f10004f04be000080fa000000060003027800c3
:100f20008201780001017800a15f200040ff3700b6
:100f3000889fbe008a1f78000004780082447800f1
:100f40000305780070c6b30080cf540021003c0038
:100f500000c0e90080cf5400d5003d007240500031
:100f600080cf54003c0132000d003c006c4050002a
:100f700080cf54006d013c0000c0e90080cf5400d8
:100f8000cb003d0050c2b30080cf5400640132005a
:100f90007c40400080cf540064013a00c400370018
:100fa00010c6b30080cf5400c100320004003c00e2
:100fb0006940500080cf54005c013a00690037005e
:100fc00030c6b30080cf5400180032000040e80063
:100fd0000900370000c7b30080cf54001001320071
:100fe00008003c0000c0e90080cf5400d900320066
:100ff0005c003c006540500080cf54004b013a003b
:101000000f00370050c7b30080cf540055003200a6
:101010006340400080cf54005200320065405000d1
:1010200080cf540041013a000b0137001181e900e3
:101030008208780028089000127578004101370076
:1010400008689000c2c6b300824f500007003a0003
:101050001101780064005100800878001000be0083
:101060004f89de00820178001400370012c7b300f8
:10107000824f500003003a001102780068005200cd
:1010800005003700a2c6b300824f500006003a00a8
:101090009102780068805200800878005001be00fc
:1010a0004000be00050037001180e900800878008c
:1010b00010007800cf80de006109b900009cbe00fe
:1010c0000294be00086a900085c6b300854f5200a6
:1010d0000d00320025c6b300854f520004003a00cf
:1010e0000000fb00cf80de006109b9000800370076
:1010f00045c7b300854f520003003200e6c24200ec
:10110000854f520004003a00cf80de006109b9002b
:10111000009cbe000294be003802be002803be0040
:1011200028089000d1c2b300e00f5200e08f5a00af
:10113000e00f5b00e08f5b0008003500b810900006
:101140000118a30002003200b1c2b300030037004f
:101150000108a3005100320001c2b30001757800fc
:101160004c00370008689000c2c6b300824f5000a0
:1011700008003a00110378006400530080087800ea
:101180001002be006033b8000400be000601be00bd
:101190001400370012c7b300824f500003003a001a
:1011a000910278006880520005003700a2c6b300a3
:1011b000824f500006003a00110378006800530087
:1011c000800878005001be004000be0005003700d6
:1011d0001180e90080087800100078008000eb00a2
:1011e0006011b800009cbe000294be00086a900026
:1011f00085c6b300854f52000d00320025c6b300ee
:10120000854f520004003a000080fb008000eb0094
:101210006011b8000800370045c7b300854f520081
:1012200003003200e6c24200854f520004003a003b
:101230008000eb006011b800009cbe000294be006c
:10124000381090000038a300140032003800be00af
:101250002801be00e00f5000e08f5800e00f590059
:10126000e08f59000d00320080c7b30080cf5400da
:101270000300320080c5b30080cf540007003a005d
:101280002808900001c3b300017578000000e80051
:10129000097578000000e800200c980028089000ec
:1012a000000545007a0498008940780067003700ff
:1012b00008699000c0c4b300804f510006003a0096
:1012c0009103780068805300800878005001be00c8
:1012d0004000be0005003700110178006400510095
:1012e000800878001000be00f40b0700009cbe00d0
:1012f0000294be00b8009000280890000100e000b1
:1013000002003d00d1c2b30008003700b8109000c1
:101310000118a30002003200b1c2b300030037007d
:101320000108a3000400320001c2b3000175780077
:101330000000e800200c98002808900000054500f7
:101340007a0498008940780008007800cb030700f1
:101350007e00370008699000c3c6b3001180e90021
:10136000834f5100220032000a003c00e4c15100ca
:10137000834f51002500320083c1e800834f5100a4
:1013800013003200e8c15100834f51001e003a00a3
:101390000a00370043c7b300834f51001b003200df
:1013a000e6c14100834f510018003200e9c15100ed
:1013b000834f510014003a00050037008008780080
:1013c0001000780028649000084878005f0037001b
:1013d000800878001000780018129000cfa2de007c
:1013e000612bb9000498be000690be00570037007c
:1013f000800878001000780018119000cf91de006e
:101400000288be00510037001180e9008008780092
:101410001000780018149000080878004b0037007e
:101420001180e9008008780010007800cf80de008d
:101430006109b900009cbe000294be00280890001b
:10144000000545007a04980081c7b30008007800c1
:10145000ad0507003d0037000869900050c6b30095
:10146000804f51001a003a001102780064005200c7
:10147000800878001000be00000c9800110c980045
:10148000881190000300e00007003d008081eb0020
:101490000001eb00550b07000001be00880890001a
:1014a00081005100080037000001eb004f0b0700de
:1014b0000081700003003200080990008200500093
:1014c0000100370088109000410c98001f00370081
:1014d0001180e90080087800100578007a049800ef
:1014e000881490000900e00004003d000a00780024
:1014f0000b0307008004780007003700090178001b
:101500008000eb000a007800fb0207000000e0000a
:10151000010032008a045000490c98000b0037008b
:101520002808900009757800060037002808900008
:10153000000545000904e00001003a0059c2b3006b
:10154000094d78000000e800200c98000000eb0036
:101550004f0578004f04be0000000600889fbe00c3
:101560008a1f78000004be00c90090006900900046
:10157000808f50000600390009007800f80207004b
:10158000800078000080eb000100e00017003500cb
:10159000084578004900900008587800c004980079
:1015a0001900780000b8a30004003a0000a8a300c6
:1015b00008003200ea4f540006003a0009007800a3
:1015c000f6010700800078000080eb000100e000d9
:1015d00006003a0000c0200019006000020032003e
:1015e00049009000e00498000a80fb004f05780055
:1015f0004f04be00000006000001eb0003003700ae
:101600000201e8000404e000070032006103b800b2
:101610006112b8008601420066427a00814f520092
:10162000f7ff3a00010037008001eb00030078006b
:10163000000006000108780000000600889fbe0038
:10164000800478000203be00010478006149b800fc
:10165000898fd2008381d200080278000600be0084
:10166000c50a0700088044004f04be0000000600c1
:10167000881f780002047800080178002efd07001a
:10168000080040004f047800000006000000fa0047
:10169000881f7800000478006a825700bfb997005d
:1016a00008017800e1b1200080b320001600070097
:1016b0000000e000020035008040eb00017478007b
:1016c0004f0478000080fa0000000600889fbe00ea
:1016d000000478000203be0081047800080278004c
:1016e00089017800120020000600be000f070700e5
:1016f000890f5000010032000004eb000800780060
:101700004f04be00000006006800fa00889fbe007b
:101710008a9fbe008004780001047800820578006a
:10172000030578008400780000f92f000f004000c6
:10173000c0ff0700d98f9f00fb8f9f000000eb00c8
:10174000a09f9f00e88f9f009a84fb000904fb0084
:101750008904ea00cf4cde0050022000800f5400c4
:101760000d003200e18f54000b003a0009017800af
:101770008a0078007f889700df89970003000100c6
:10178000f08f9f000000e000950032002f98970036
:101790000000e800a09f9f000905450050022000be
:1017a000800f5400040032000800e000e6ff3a0019
:1017b0002f9897008b0037000000eb00809f9f0060
:1017c000f0979f00e0979f00d0979f00c0979f00e1
:1017d000b0979f0007003700611121000100500001
:1017e00000004000a110210061007800cf98970010
:1017f00001007000c09f9f000a047800080578006f
:10180000ba4478008900fb00601121007aff0700cc
:101810000000e000f0ff3a00a1c2b30081cf540005
:101820000e003a008f8897000180e900808f9f00aa
:1018300010007800b09f9f000000e00005003d0010
:101840000000ea00b09f9f004f9897000020a00082
:10185000c09f9f000804e80010003700b09f9f0061
:10186000880078000000eb0005003700f3ff270038
:10187000830f5000020032006a02b90004004100e8
:1018800001047800880078003101fb000203b100f8
:10189000e90f5100f5ff3600b09f9f00e0c2b30092
:1018a000984f1000020032000080eb001900370052
:1018b000a0c2b300d84f100007003a008f889700ed
:1018c0000180e900808f9f0010007800909f9f00aa
:1018d0000804e800100037000000eb00909f9f0014
:1018e0008800780005003700f3ff2700830f5000c1
:1018f000020032006a02b9000400410001047800cd
:10190000880078003101fb000203b100e90f5100ab
:10191000f5ff3600909f9f00984478008900fb00f7
:101920002010210034ff07000000e0000200320018
:101930000804e800010037008044eb00a97f9f0005
:1019400080c6b30080cf540006003a0098cf140040
:1019500010003a0066405000a07f9f000804e80095
:101960000c003700c0c6b30080cf540009003a0015
:1019700098cf140007003a0067404000d84f10008d
:1019800002003a006e4050000100370010c7b3005b
:10199000a07f9f001801fb00c3fb2f008f81410037
:1019a00001f92f008f80400020f92f000f00400028
:1019b0002e0f07000000e00009003a00c1fb2f00d5
:1019c0008f80400020f92f000f0040007d050700a8
:1019d0000000e000020035000805e8005aff37006b
:1019e0000080eb004f05be004f04be000080fa00ef
:1019f00000000600030278008201780001017800ef
:101a000061b6200040ff3700889fbe0000047800c8
:101a100001007800820478008801780009017800cc
:101a20001100200060010700890f50000100320002
:101a30000004eb00080078004f04be000000060020
:101a40000000fa00e88157004fb9970061f12000cb
:101a500040d02000cc0007000080fa000000060003
:101a6000889fbe00000478000203be008104780055
:101a70000802780089017800120020000600be00ec
:101a80002a060700890f5000010032000004eb0015
:101a9000080078004f04be00000006006800fa004d
:101aa000889fbe008a9fbe008004780001047800f1
:101ab00082057800030578008400780000f92f0083
:101ac0000f004000dbfe0700d98f9f00fb8f9f00b7
:101ad0000000eb00a09f9f00e88f9f009a84fb000e
:101ae0000904fb008904ea00cf4cde00500220000c
:101af000800f54000d003200e18f54000b003a00bb
:101b0000090178008a0078007f889700df899700b4
:101b100003000100f08f9f000000e00095003200fc
:101b20002f9897000000e800a09f9f00090545003e
:101b300050022000800f5400040032000800e00032
:101b4000e6ff3a002f9897008b0037000000eb006b
:101b5000809f9f00f0979f00e0979f00d0979f0085
:101b6000c0979f00b0979f00070037000113210026
:101b70000100500000004000411221006100780087
:101b8000cf98970001007000c09f9f000a04780062
:101b900008057800ba4478008900fb000013210092
:101ba00095fe07000000e000f0ff3a00a1c2b3007c
:101bb00081cf54000e003a008f8897000180e90021
:101bc000808f9f0010007800b09f9f000000e00011
:101bd00005003d000000ea00b09f9f004f9897006d
:101be0000020a000c09f9f000804e80010003700fc
:101bf000b09f9f00880078000000eb0005003700d0
:101c0000f3ff2700830f5000020032006a02b90080
:101c10000400410001047800880078003101fb00d5
:101c20000203b100e90f5100f5ff3600b09f9f009d
:101c3000e0c2b300984f1000020032000080eb00b9
:101c400019003700a0c2b300d84f100007003a00b7
:101c50008f8897000180e900808f9f001000780036
:101c6000909f9f000804e800100037000000eb0080
:101c7000909f9f008800780005003700f3ff270041
:101c8000830f5000020032006a02b90004004100d4
:101c900001047800880078003101fb000203b100e4
:101ca000e90f5100f5ff3600909f9f00984478009f
:101cb0008900fb00c01121004ffe07000000e0007a
:101cc000020032000804e800010037008044eb0005
:101cd000a97f9f0080c6b30080cf540006003a0061
:101ce00098cf140010003a0066405000a07f9f007b
:101cf0000804e8000c003700c0c6b30080cf5400d1
:101d000009003a0098cf140007003a0067404000ed
:101d1000d84f100002003a006e405000010037001a
:101d200010c7b300a07f9f001801fb00c3fb2f006a
:101d30008f81410001f92f008f80400020f92f0092
:101d40000f004000490e07000000e00009003a00c3
:101d5000c1fb2f008f80400020f92f000f004000b2
:101d6000980407000000e000020035000805e800c4
:101d70005aff37000080eb004f05be004f04be0045
:101d80000080fa000000060003027800820178005b
:101d90000101780001d3200040ff3700889fbe007a
:101da0008a1f7800000478000800e0000d003a0067
:101db00048f62000700544008004eb0058007800cd
:101dc0000000e00004003200f4ff07000000e00023
:101dd00001003d008084eb008a0f5400f7ff3a00b9
:101de0002500370000002200180060008004eb008e
:101df00021003200a80490000f00370009015100b3
:101e0000384090000000fb0089007800ddfa0700f0
:101e10000000e00007003c0028009000400498000b
:101e200060049800500c98001890a0008084eb008b
:101e3000110037008084440048019000828f5400d4
:101e4000eeff3900280090004004980098007800c8
:101e500002c020000281600001003a0038009000ba
:101e600001e8a3000200320060049800010037007e
:101e7000500c98008004eb00090078004f057800b2
:101e80004f04be0000000600889fbe008a9fbe006f
:101e900080047800010478002c003700c80090000e
:101ea00068009000808f500004003900080078001e
:101eb000ab0007000000e0003700350000402000c4
:101ec0001800600009003200a1002000090078001d
:101ed00099000700800578000b00e0000300320045
:101ee000618514000a854500040037000900780068
:101ef0008b000700000578008005eb00480090008b
:101f0000e8009000808050008a8f5000020031006d
:101f1000010578008005eb000a017800890078004f
:101f200005fb0700480090000a00400040049800ac
:101f30000b00e000040032000800780097ff070063
:101f40000000e00014003a008a8444001904e00014
:101f5000d2ff3a0000802000180060000600320026
:101f6000080078008dff0700800078000080eb00fb
:101f70000100e00009003a0001c0200098806000e4
:101f80000000eb000500320048009000600498005b
:101f90000000eb00010037000080eb004f05be00a1
:101fa0004f04be0000000600889fbe008a9fbe004e
:101fb0008c9fbe008e1f7800000678000104780018
:101fc00002007800830478000881b90002077800d5
:101fd0000200e000420032000800e0004100320050
:101fe00082057800c900900069009000808f500041
:101ff0000400390009007800590007000000e000e3
:102000002900350000402000190060000a0032005d
:102010000b017800a10020000c00780036000700ba
:10202000800678000d00e000060032006105160011
:102030000a854600040037000b0578008006eb0097
:10204000010037000b05780049009000e90090007e
:10205000808050008a8f5000020031000105780016
:102060008006eb000a0178008c007800b2fa0700c5
:102070008a855500490090000a004000c00498007d
:102080000d00e000040032000900780043ff070063
:102090000000e00004003a000b00e0000200320003
:1020a0000a064600cfff37000080200019006000bc
:1020b000020032000900780038ff070000c020004d
:1020c000190060000200320049009000e00498000e
:1020d0008b055700110009008885d80001003700e2
:1020e0000000eb004f0778004f06be004f05be0012
:1020f0004f04be000000060003003700b0cf100000
:10210000050032000201e900800178000200e000d1
:10211000faff3a0000000500030078000000060006
:1021200080007800010178003104e000fdff3a00f2
:1021300000005100000006000001eb0000027800e2
:10214000b041780081cf510001003a0004017800cd
:102150000304e000f9ff3a000200780000000600e6
:10216000889fbe008a1f780000047800c800900095
:10217000680190000000eb00828f50003c003900a5
:10218000180078002200290002016000e20f5100cf
:1021900007003200012020000000e00001003500af
:1021a00001202400008c70000080eb00300037001c
:1021b0000200260002006000820f500009003a0071
:1021c00038009000808f5000060039000800780029
:1021d000f2fe0700800078000080eb000100e000c4
:1021e00023003a001805780000c0200000006500b8
:1021f00018003a00a8049000600220000800400087
:10220000808f540013003a0000202000630607006e
:10221000200498000000e00005003a00290498001e
:10222000490498008904e800390498000800370040
:102230000a60a0000a0c78004004980001202000e9
:102240008080400031049800400c9800500c9800a9
:10225000a404070028009000500498003800900063
:102260006004980000002600180c70000000eb00cd
:102270004f0578004f04be0000000600cf04b000f8
:10228000889fbe008a9fbe008c9fbe008e1f780074
:1022900000067800814678003c00be002c01be009c
:1022a000d0979f00e1979f00f2979f00839f9f0028
:1022b00010c6b30080cf56001200320010c4b30025
:1022c00080cf56000f0032000c1090000000e0009c
:1022d00002003d0060002000090037000000e0001f
:1022e00008003a0070c6b30080cf560003003200e9
:1022f00070c4b30080cf560002003a0010002000e6
:10230000001698008c00780080fa2f000f00400023
:10231000d3010700e20f50000f003a003000200008
:10232000400e980060f7200011c6b30081cf560020
:1023300019003200e4c0400081cf56001600320080
:10234000a0f720008140e80081cf560012003a003b
:1023500060f72000100037000000e0001400340097
:1023600030002000400e9800e0f7200011c6b300b6
:1023700081cf560008003200e4c0400081cf5600f3
:102380000500320020f820008140e80081cf56008f
:1023900001003a00e0f72000fc009000b04878000f
:1023a000b06878001040780090409800a60137008f
:1023b00011c6b30081cf56000300320011c4b30030
:1023c00081cf56000e003a00fc00900002c3b3001b
:1023d000825878007106980082c5b30013c6b30016
:1023e00083cf560001003a0082c7b30082587800bc
:1023f00071069800ac0890008180e800210e9800da
:102400000000e00005003a00c0979f008001eb004b
:1024100022fb2f000f0141008701370010c6b300d7
:1024200080cf56000600320010c4b30080cf5600a3
:102430009a003a0071f92000d1b79f0002003700de
:1024400062f82000d2b79f000c1090001b02200001
:102450000000e000010035008005e8000b05e80001
:102460006022b8006033b8005f909700ef9097004b
:102470007f9197008f9997007707070000027800f7
:102480003c00be002c01be000400e00001003d0045
:1024900003f0a200d0979f00e1979f00f2979f0062
:1024a000839f9f00cf919700e4815100c3979f00c5
:1024b0000040eb00a0779f003efb2f000f07470076
:1024c00031003700c201200003002000a0fa2f00d5
:1024d0000f004000d10407005f909700ef90970035
:1024e0007f9197008f99970090b79f00a1b79f00a9
:1024f000b2b79f00c3b79f008f0707000004be005c
:10250000670555004240a9000c003400b6070700db
:102510000002be000203be001fb09700afb09700dc
:102520003fb19700cfb197003f090700d0979f00b8
:10253000e1979f00f2979f00839f9f0067074700e6
:1025400070002000050037006f676400cc48dd0094
:102550004444de0008847000c4ccde00e00f540068
:10256000e08f5c00050034000000e900e10f40004e
:10257000f5ff3a00010037000067eb000000e900ba
:10258000fdff3b00670747000a00e0000900340038
:102590006022b8006033b8005f909700ef9097001a
:1025a0007f9197008f999700300707000000e000a7
:1025b000c4ff3c0032fb2f000f014100020757000f
:1025c0008e0178008b0f5700010034008b017800da
:1025d0000300e0002b0035000040eb008e8f51001f
:1025e0000a003d0082fa2f000f0141000300410064
:1025f000b0489000f0c0b300e7cf500003003c00ab
:102600000040eb0001003700810178008300e90001
:1026100034fb2f000f0242000101420012427800f9
:10262000804f5200f8ff3200ef4f500001003a0097
:102630000449e8000100e00007003d008301e800d4
:102640004f90970064004000c0979f0022fb2f002e
:102650000f0141000200370032fb2f000f01410043
:102660000300780005003700e24078008100fb009d
:102670005fb29700e4c07800017178000000e900c3
:10268000f9ff3b000c1090000000e000ea003d0064
:102690000300e90000169800e70037005f949700f8
:1026a000ef9497007f9597008f9d97006022b80068
:1026b0006033b8000800be000a01be00e60607004d
:1026c0000000e00005003d000bf0a200d8979f003d
:1026d000e9979f00fa979f008b9f9f0070592700f2
:1026e000cf9097000088b900026a280013002000ec
:1026f000e306070064045000c8979f0015003b00e4
:1027000063041400c0ff2f00000464000800ea0006
:10271000c0979f005f909700ef9097007f91970080
:102720008f9997008afa2000070037000808a30055
:10273000030032003a02be002a03be00ba090700b5
:102740000884d100680545000800e000f7ff3c0060
:102750001a0037000800e0001c003200c0ff2f0004
:1027600000046400c8979f008afa20006000b80047
:102770000200200003ff2300070037000808a30021
:10278000030032003a02be002a03be00a609070079
:102790000884d100680545000800e000f7ff3c0010
:1027a0000002be000203be005f909700ef9097000a
:1027b0007f9197008f999700ec080700d0979f00b2
:1027c000e1979f00f2979f00839f9f000c17900056
:1027d00060c6b30080cf56000400320060002000c5
:1027e00061c4b30081cf560002003a00cf90970039
:1027f0006a8040000e074000f30f570001003400cc
:102800003e01200000c3b300a0779f003bfb2f00d8
:102810008f854500350037005fb09700efb0970017
:102820007fb197008fb99700c30607000004be0070
:10283000680757004240a90010003400ea0607006c
:102840000002be000203be005fb09700efb0970029
:102850007fb197008fb99700730807006022b80016
:1028600046782d00771924006f090700d0979f0044
:10287000e1979f00f2979f00839f9f00e8854500a6
:102880008a0020000801be000c003700a4002000d0
:1028900005002000a0fd2f000f004000720307007c
:1028a0005fa89700efa897007fa997008fb19700c6
:1028b00004c3b300846541000001be00e00f510075
:1028c000e08f5900060034000a05e900e10f4500d9
:1028d000eeff3a000200370000c3b30080657800c5
:1028e0000a05e900fcff3b00e88545000e00e0001a
:1028f0000d0034005f909700ef9097007f91970054
:102900008f999700d0b79f00e1b79f00f2b79f0063
:1029100083bf9f006022b8006033b80053060700f1
:102920000000e000bcff3c0031fb2f008f80400026
:10293000818555004f91970067004100c0979f0027
:10294000020037008b05e9000000e9000101780072
:102950008200780003c3b300b1cf1100f9ff320049
:10296000c0979f008c11900061c6b30081cf5600c4
:102970000300320061c4b30081cf560002003a0068
:102980000000e800090037001000200051c6b30025
:1029900081cf5600050032000d40780050c4b200cf
:1029a0000080fb000000e9004f00de0083014000d2
:1029b0008b8f5100010034008b0178000300e00090
:1029c0001d00350000c3b3008b8f510006003d0091
:1029d00062c279006940400041c3b300814f520098
:1029e00001003c00694050008300e9008100410083
:1029f00001003700840178000302e9000103780038
:102a0000a142780080cf5200faff320091c3b30098
:102a1000814f500001003a00054be8000400e0003f
:102a200005003d000201e9008301e8004f92970094
:102a30000402e800c4979f004f9297008d407800f1
:102a40000c0078007f0407004f0778004f06be0097
:102a50004f05be004f04be00cf04b10000000600c9
:102a6000889fbe0000047800e68440001900d00072
:102a70004500de00f27f2000820f500010003a0077
:102a8000000ceb00990478006f81640020002000a6
:102a90001b003a00210190000200e00018003a00fb
:102aa000110190000200e00015003a001000200023
:102ab0001100e0001200320020002000100037005a
:102ac0000000e00004003a0001007800070307005e
:102ad0000000e00008003c00f2002800190161003d
:102ae00001fe2300810c710021c02f00010c400069
:102af0000080eb0002003700000ceb000000eb0050
:102b00004f04be0000000600fc874700889fbe00ff
:102b10008a9fbe008c9fbe008e1f78000006780042
:102b200080c5b30080cf50000a00320077404000db
:102b300080cf50000a0032006940400080cf500032
:102b40000b003200700d210080bf9f00ae002000fe
:102b50000a003700620c210082bf9f000600370088
:102b6000730d210083bf9f008e00200003003700fb
:102b7000740d210084bf9f000e0120003c02be00a6
:102b80002c03be000605be000404be0040c6b30010
:102b900080cf5000030032006540400080cf5000dd
:102ba0000b003a00e00f5200e08f5a00e00f5b008c
:102bb000e08f5b0006003d006000b8006011b800c7
:102bc0000404500085845800060559008785590083
:102bd000e80f57000400320040002000f00f5700bb
:102be00038003a000100370030002000e00f5400a8
:102bf000e08f5c00e00f5d00e08f5d0004003a00b4
:102c00008c1090008d0120000100e00006003200d1
:102c10008e00e900888060008fba9700e5c07800d8
:102c2000f1ef9f007d012000800078008100e90025
:102c3000050033008b05d1000a85d3008984d300b9
:102c40000884d300f9ff3700089ebe000a96be0034
:102c5000120037008d06e9008e00e90084806000d4
:102c60000fb99700e2c1780082fd2f000f014100eb
:102c700003f17e00800078008100e9000500330048
:102c80008783d1000683d3008582d3000482d300da
:102c9000f9ff3700049ebe000696be003c02be004f
:102ca0002c03be00e00f5200e08f5a00e00f5b00e3
:102cb000e08f5b008b0034000d00e000e5ff3c007e
:102cc000880037000c68900081c6b300814f500027
:102cd0000b00320006003c000004e0000800320057
:102ce000e6c05000814f50004e003a00040037000b
:102cf000c1c6b300814f50004a003a00210037009e
:102d00000800e00004003a000c1090008d01200043
:102d10000000e00006003200110009000e84d80017
:102d20000fb99700e2c07800f1ef9f007d0120000d
:102d3000110009000e84d8000a00370011000900b4
:102d40000e04d8008d06e9000e81b900020454007b
:102d50008fb8970061417c0081fd2f008f8040007b
:102d600082f07e00000478000800e00002003200db
:102d70000d00e000f1ff3c00cfc4de00614db90062
:102d800025003700e00f5400e08f5c0004003a009b
:102d90000c1090008d0120000000e00007003200c0
:102da0006171b9000800be001c0707008fb99700c9
:102db000e3417800f3ef9f007d0120006171b900cd
:102dc0000800be00a80607000b0037006171b900bb
:102dd0000800be002a0507008d06e90000f1b900d1
:102de000020454000fba9700e4427c0084fd2f00d7
:102df0000f02420005f27e000004be00e00f50000a
:102e0000e08f5800020032000d00e000efff3c00b0
:102e10004fcdde008a057800089ebe000a96be00ef
:102e200030003700e00f5400e08f5c00e00f5d00e1
:102e3000e08f5d0004003a000c1090008d0120002e
:102e40000000e000090032006172b900612bb90096
:102e50000800be000a01be00210607000fba970055
:102e600064427800f4ef9f007d0120006172b90098
:102e7000612bb9000800be000a01be001106070060
:102e80000d0037006172b900612bb9000800be0067
:102e90000a01be00160607008d06e90000f2b9001f
:102ea000040454008fba970065427c0085fd2f0012
:102eb0008f82420084f27e00009ebe000296be0019
:102ec0003c04be002c05be00e00f5400e08f5c0007
:102ed000e00f5d00e08f5d00020034000d00e000b7
:102ee000e8ff3c00e80f570010003a003c1090004b
:102ef0000038a3000d003200f78f560006003e0098
:102f000085fd2f008f824200e5c07e0000c3b30024
:102f100080cf5000050032008d06e90002c3b300e7
:102f200081fd2f008f80400082f07e0078811600a6
:102f3000420e98007c00900083fd2f008f8141009d
:102f40008d804100fcf607004c0890008c1090002a
:102f5000810f500006003d0000805000300e9800a8
:102f60003c1090000040a100301698000f00370080
:102f70000100e0000d003d00bc109000f4806000f6
:102f8000f08f500009003a002c119000ac0890001e
:102f9000810051003c099000828050000080500068
:102fa0004240a90001003400300e98004f0778001d
:102fb0004f06be004f05be004f04be00cf01b1005a
:102fc000000006000400fa00889fbe008a9fbe0031
:102fd0008c1f78000004780001067800a814900087
:102fe00028089000808454003808900080845400a1
:102ff0004808900080845400580890008084540051
:103000006808900080845400780890008084540000
:103010000002220090bf9f0000032300a0bf9f007a
:10302000381090000028a30015003a000900e000c5
:1030300013003400090578008a057800e20f550076
:10304000010036002b002000c80190000b01780021
:10305000ee805700680090000300010060049800b3
:103060000000e000aa003200181090000b004000a1
:10307000101498000b0555004240a900eeff3c00db
:10308000280990000200e0000c003400c801900004
:103090008c00780068009000030001006004980034
:1030a0008080eb000000e0009a0032009810900051
:1030b000280890000080400010149800380d9000ff
:1030c0000a00e000110034008a057800e20f550084
:1030d000010036002b002000c80190000b01780091
:1030e000ec80570068009000030001006004980025
:1030f0000000e00086003200181090000b00400035
:10310000101498000b055500edff3700086990007a
:10311000c808900050c6b300804f510008003a0024
:103120000100e000150034005802900008099000ea
:103130009809900068009000040001000700370023
:103140000100e0000d003400c8019000010178008a
:10315000f8009000680090000300010060049800ef
:103160008080eb000000e0006a00320098109000c0
:10317000480890000080400010149800580d9000fe
:103180000a00e000110034008a057800e20f5500c3
:10319000010036002b002000c80190000b017800d0
:1031a000ec80570068009000030001006004980064
:1031b0000000e00056003200181090000b004000a4
:1031c000101498000b055500edff370008699000ba
:1031d0006808900051c6b300814f51000d003a00bd
:1031e0000000e0001c00340078019000c808900046
:1031f000010141006111b800828fd2008381d200a9
:1032000058029000800078006800900004000100df
:10321000090037000000e0000f0034007801900042
:10322000c808900081004100c801900000017800aa
:103230006800900003000100600498008080eb00ab
:103240000000e00033003200981090006808900001
:103250000080400010149800780d90000a00e000f3
:10326000110034008a057800e20f55000100360095
:103270002b002000c80190000b017800ec80570063
:103280006800900003000100600498000000e00066
:103290001f003200181090000b004000101498001e
:1032a0000b055500edff3700381090008000eb0053
:1032b0000028a300170032000900e00015003400c8
:1032c00009057800e28f5400010036002a00200032
:1032d000c80190000a017800ee8057006800900055
:1032e00003000100600498000000e00008003200c4
:1032f000181090000a004000101498008a845400ae
:103300004240a900eeff3c008000eb0001003700c6
:103310008080eb00010078004f0678004f05be006a
:103320004f04be000080fa0000000600e687470058
:10333000889fbe008a9fbe008c9fbe008e1f7800b3
:1033400082bf9f0004047800029ab900f4b79f007e
:103350000400e000590032000fb997000200e000bd
:10336000570032000006be0004077800c800900035
:1033700068009000808f5000040039000800780039
:1033800077fb07000000e0003b0035000040200014
:10339000180060000a0032008e017800a2002000b0
:1033a0000c00be00910307000005be000080750000
:1033b000070032008c0455008904e800050037003e
:1033c0008e0478000a0020000b0020000100370066
:1033d0008e047800480190006800900002005000c0
:1033e000890f500003003100800478000a0020009b
:1033f0000b0020006111b800828fd2008381d200bf
:10340000090278000c00be005b03070009075700a3
:103410004800900009004000400498000a857500ab
:1034200004003200080078005cfa07000000e000a9
:1034300011003a000e00e0000f0032006148b800b1
:10344000808fd2008180d2000000780000f0a100bf
:103450008c01d0000001d000028641004220a8006b
:1034600081864e004200a9004220ae004200a80022
:103470000c86d300bdff37000080200018006000dc
:10348000020032000800780044fa070000c0200063
:103490001800600002003200c80190006304980028
:1034a0007fb097000e0750000fb997001100090078
:1034b0000287d80080017800010037008001eb000e
:1034c000030078004f0778004f06be004f05be008e
:1034d0004f04be006f00b1000000060040b12100a3
:1034e00076003700881f7800081721001804e000d4
:1034f00003003a00f9ff070020c0b300004c780039
:103500004f04780000000600889fbe000004780089
:103510000800780021fa07008004780000042000e9
:1035200018006000020032002800900036010700f9
:103530000000eb0020049800384090000004e000f8
:10354000050035000000fb0005f507000000e00065
:10355000010032008084eb00181090000000e000b1
:103560000800320049f507000000e00001003200c9
:103570008084eb0018109000230107000000eb008e
:103580001014980000082000180060001500320098
:103590000001eb006000b80063f620000202d000da
:1035a00063027a00880f520005003a0000004000d4
:1035b00081804800008041000008eb0006003700d1
:1035c00061004000e08048000201e800e80f500080
:1035d000e08f5800f0ff3a00080078000a01070069
:1035e0000e003700000c780000c0eb00304498005b
:1035f0006002200008004000200498004004980069
:1036000050049800400c980060049800500c9800fa
:103610007004980076004400000c980009007800bf
:103620004f04be0000000600881f78000004eb0075
:103630006140b800e2ff2f00f3ff2f008203070074
:1036400042f72000620078000000e0000100320034
:10365000adff07000804e800e80f5400f4ff3a004b
:103660004f04780000000600881f78008a9fbe0083
:103670008c9fbe00000478000205be000406be0058
:103680000401be000a00be00fd020700008cbe005f
:103690000c01be006c0307000005550081855d002c
:1036a0002a0498003b049800080078004f06be00ea
:1036b0004f05be004f047800000006000100200006
:1036c0000100e00008003200010080000100e0007d
:1036d000050032008100e900010088008100d0006f
:1036e0000200800000b1780000000600e600400003
:1036f0001101780005002800850261006f0161005a
:103700008208780002003200120020001100370009
:10371000a0019000120020000300e0000d003a001c
:10372000900190000300e0000a003a001000e00061
:1037300008003a003600370064034000960878001d
:1037400080017800530b7800900978000408780015
:1037500070015100110278000400e000f6ff320011
:103760001300370064024000140378004f33de007a
:10377000838141008308730080017800d3037800bf
:10378000cf3bde001403780006034300068a730073
:103790001302780004024200100378004f33de0069
:1037a0008609720090017800038841000201e90057
:1037b00091017800ef8f5100eaff360010003700ca
:1037c00080017800530378004f33dd001002d100f0
:1037d000040873006402400094037800cf3bdd00ce
:1037e0001303d10086897300110378004f33dd0085
:1037f0009401d100030a73009108d1000201e8008e
:1038000091017800ff8f5100edff3e00ef886100cd
:103810009188720002007800000006000400fa009f
:10382000889fbe0000047800e60444001900780078
:103830008000d000c508de00f47f2000848f500097
:103840000e003a00ef006000200020006b003a00fc
:10385000a80090000100e00068003a009800900085
:103860000100e00065003a00100020001800e000b0
:103870006200320020002000600037000100e000fc
:103880000a003a0008007800c2bf9f00d3bf9f0023
:1038900096ff0700800078000000eb004fb997000a
:1038a000dfb997000100e00054003c004f88de00c3
:1038b0000281400083014800e07f2000800f51001a
:1038c000e08f59000d0034001900e00004003d00b5
:1038d0006000b8000200200003ff2f000300370043
:1038e0006000b8000200200003ff2700009cbe001b
:1038f0000294be001000200040003700e00f51008d
:10390000e08f5900050034004411dd00f00028006c
:1039100019006000800c7100370037001900780032
:1039200004002800040260006f0060000040a00056
:10393000800c7800d0fc2f00f1ff2f00800f510089
:10394000818f590006003d00840c78000000eb00d8
:103950002004980010049800000ceb0027003700aa
:103960006f0141000600370008007800500c780015
:10397000e40044001108780099087800800ceb00fe
:10398000700051007001410001fe2f008280400054
:10399000ef8f4000f4ff35000000ea001500320010
:1039a0008800780070011000d1027800822add00c2
:1039b000980178008019de00038c720064044400d2
:1039c00098027800822add00910178008019de00db
:1039d00083887200990078000209dd009800780061
:1039e0008008de00010c7100990078000008de00fc
:1039f000800c7800990c72000080eb004f04be0030
:103a00000080fa00000006000000e0002f003200f5
:103a1000c0017800e38f51002c0036000308a3009a
:103a20002a003a00718b80000100e00002003200a1
:103a3000810f50000400310011009800708b880045
:103a40001600370082007800110190000200e000ab
:103a500002003200800f5100faff39001102780095
:103a600084824000850f500018003900808f52007a
:103a700003003a0083084200010078000700370085
:103a80000200e0000300320083014000830f510078
:103a90000e003900120098009000980090009000ed
:103aa0000100e0000900320010014000828f500048
:103ab00006003a00c21621000009eb001001780050
:103ac00011084100910090001100980000000600cc
:103ad000889fbe0000047800618b80000100e00038
:103ae00002003200010078000d003700718b800069
:103af000e016210004003700910f54002500360025
:103b00000180e800910090000100e000faff3a0017
:103b100010003700920f54001e0036000280e800ab
:103b2000100178000200e000faff3a00110178006d
:103b3000718b8000e016210004003700910f5400c3
:103b4000140036000180e80091009000828f500040
:103b5000faff3a00998b8000888f540001003100f1
:103b60008804780009007800680107000000e00080
:103b700004003a00888f5400050032008904d10007
:103b8000f5ff3700091878009fff0700d2ff3700c4
:103b90000000eb004f04be0000000600881f780004
:103ba000630440000800a1008000eb00800f540077
:103bb00021003600e30f540001003e0048002000c1
:103bc00008007800c2ff07008000eb000000e00062
:103bd0001900320090007800910178006481510052
:103be000880f510003003100110190000208780095
:103bf000070037000881400002087800910190001a
:103c00001301980010017800110914008808780049
:103c1000100178000000eb000200e0000400320018
:103c2000920190000300e000010032000280e800f1
:103c3000608b88008180e800010078004f047800e4
:103c400000000600f0874700889fbe008a9fbe00e4
:103c50008c9fbe008e1f780000047800814478009d
:103c60000205be00040678000b00e00002003c00e4
:103c70001b0020004a17210060c6b30080cf54000b
:103c80000e00320060c4b30080cf54000b0032003d
:103c900070c6b30080cf54000300320070c4b3007c
:103ca00080cf540099003a00e40f46007f003500b1
:103cb00008109000800f56007c003d000c06e800c4
:103cc00060c6b30080cf54001000320060c4b3005f
:103cd00080cf54000d003200381090000038a3004f
:103ce00004003a0008109000808f550001003d004c
:103cf0000b149800081090000c005000001498005d
:103d000002003b000000eb000014980048089000ff
:103d1000f80090000c00e00026003c0002c3b30055
:103d2000827078000000e800400c98008810900035
:103d30000100e00003003c00b81090000138a3002f
:103d400005003200f8009000e2c2b30082707800f3
:103d50000000e800400c9800081090008c00ea0079
:103d6000810f500001003d000006ea008c00ea00cf
:103d7000510c9800000646000c1498008b0f56005a
:103d8000010034000b0678006c0c9800f8009000dd
:103d900048089000008040000c0178008a007800fc
:103da00065f30700081090000c0650007c0c98008a
:103db000be0037008c8f550018003d000080400089
:103dc0000b0178008a0078005bf307004808900038
:103dd00000804500400c98008b0556005b0c980055
:103de000881090000100e00003003c00b810900033
:103df0000138a30006003200f8009000e2c2b300d0
:103e000082707800680890000000e800600c98005c
:103e100008109000700c9800a4003700008040004b
:103e20000c0178008a00780043f3070048089000ee
:103e300000004600400c98008c85550088109000ca
:103e40000100e00003003c00b81090000138a3001e
:103e500005003200f8009000e2c2b30082707800e2
:103e60000000e800400c980008109000808f55007a
:103e70000100340080057800f800900048089000a8
:103e8000008040008c0045000b0178002af30700f9
:103e9000480890000b004000400c9800081090006b
:103ea0008b0550005b0c98008000370070c6b30093
:103eb00080cf54000300320070c4b30080cf5400a0
:103ec00012003a0008109000808f550004003d0059
:103ed000381090000038a30001003a000b1498003d
:103ee000081090000000e9000014980002003b0058
:103ef0000000eb000014980070c6b30080cf54009f
:103f000009003a0059c6b3000c00370010c6b300d0
:103f100080cf54000600320010c4b30080cf54009c
:103f200006003a000400370059c4b300030037000c
:103f300009c7b3000100370009c5b3004808900065
:103f4000f80090009a7078000000e800400c98009b
:103f5000881090000100e00003003c00b8109000c1
:103f60000138a30005003200f8009000e2c2b3005f
:103f7000827078000000e800400c98000810900063
:103f80000000e000100034008b05e900808f550030
:103f90000100340080057800f80090004808900087
:103fa000008040008a00e8000b017800e2f2070080
:103fb000480890000b004000400c9800081090004a
:103fc0008b0550005b0c9800f800900048089000aa
:103fd00000804000095878000005e8000c00e0006f
:103fe00004003500b1c2b300014878008a067800a9
:103ff00004003700d1c2b300014878008a06780077
:104000000c06ea00fd8557000007eb0009003700a9
:10401000a20020008c007800728057004500070045
:104020007fb097008fb89700816d78000006780008
:104030000e07e8000c00e000f5ff3c00e10f570020
:1040400013003c0050c6b30080cf54000300320080
:1040500050c4b30080cf540003003a008a067800b1
:1040600000c3b300805e78000e00e00008003a0054
:1040700000c3b300805e7800050037000e07e9003a
:10408000fc80570061407f0002c3b300825e4000a5
:104090000e00e000f9ff3c00f80090004808900096
:1040a00000804000808656006d0c9800381090000b
:1040b00074006000f00f50000e003a00c808900035
:1040c0002808900000804000d808900001004000bf
:1040d000e808900001004000f8089000010040004e
:1040e000a8109000810f500002003d000080500099
:1040f000300c98004f0778004f06be004f05be00f9
:104100004f04be000f01b1000000060080007800df
:104110000000eb000100e000050034000100780021
:1041200063f20700e10f400001003a000000eb00dd
:1041300000000600800278000103780011000900e9
:104140000203d80080017800830a78000299b90040
:10415000020153009202980005007800000006005a
:1041600000c0da000000060000c0da00000006000f
:1041700000c0da00000006003400f8000203be00b0
:10418000820270008502720002f0a60000f0a60014
:104190008100e800a10188001500b200080032008b
:1041a000105978000402e9000d003200610040005f
:1041b000fbff39003420ec0000002800f8ff370036
:1041c000101978000482e900050032006200400006
:1041d000fbff39003420ec0000002800f8ff370016
:1041e0003400f9000601be00000006000300e000f4
:1041f00007003200a5018000a1018800104278006c
:10420000a50188000402fb00820f52001100320059
:104210008301e900a5018000a10188001042780017
:10422000a50188000404e0000800320000027800c4
:104230001000b00000026a004260af0000f0a00071
:104240000482d2000180b000e8ff370000002000a7
:1042500001002000000006008f1fd100130407009a
:104260008f87e9000000e00000000600809feb005f
:104270000e0407008f87e9000000e0000000060040
:10428000839f68000100e00002003d006000100014
:10429000e08018000300e00002003d006001110012
:1042a000e0811900700107004f00e00002003b00b0
:1042b00060001000e0801800000006008103780014
:1042c0004c0007000001be006000b8000478a300a5
:1042d00013003a006220e10015003e000d00390095
:1042e0008301d1000281d3008180d3008301d100fa
:1042f0000281d3008180d3008301d1000281d300e9
:104300008180d3000538b000c42add00f300b2007c
:104310008381720007f0a70003f0a00000000600f0
:10432000f3ff2700f2ff2f006110b900fbff3700f9
:1043300003ff2700f7ff37001400fa00889fbe0034
:104340008a9fbe008c9fbe000004be000205be0016
:10435000680047000a90be000890be000e040700e7
:104360000070a7000bf0a100304320009e029000d7
:1043700080825200b0fe2f000028e10011003d00b5
:10438000b0fc2f000028e100150034001e09900049
:104390008e0890007e0090000501b0000201d1005f
:1043a0008180d3000080d3008502e800fbff3a0043
:1043b0000b00e00033043b0060001000e0801800b8
:1043c00030043700f0ff2f00f1ff27000b00e00062
:1043d0002c043b00010028000000200029043700c5
:1043e0006000b800270437004f89de0082017800a2
:1043f00029043700c70ade00f107b200f50fb2004a
:1044000008003200e1cf4200020032000170a0003b
:1044100024000500810f700001003200040805002f
:1044200044000500810f700002003a0014000500ee
:104430008502e9000000400081c04800fcff3b000d
:104440000170a00024000500020ab900001bb90099
:104450000200b80081004200810043000000060015
:10446000889fbe008a9fbe0030044200b0844a008c
:1044700030054b0090854b006000b1000898be00ed
:104480000a90be000440e10005c8e10006d0e1004a
:1044900007d8e10002003100680040001008e80081
:1044a0004f05be004f04be0000000600889fbe00fe
:1044b0008a9fbe003004be002005be0004185400d0
:1044c00005985c0006185d0007985d00110020004b
:1044d0000440e10005c8e10006d0e10007d8e10092
:1044e000010039008000eb00108810004f05be006d
:1044f0004f04be00000006001200fa00889fbe00b4
:104500008a9fbe008c9fbe00e0b79f00f1b79f005e
:1045100082bf9f0093bf9f000605be000404be003b
:104520000000eb00d0b79f00c0b79f00b0b79f005e
:10453000a0b79f0090b79f00000678005fb197007a
:10454000cfb09700820141003fb097000200e00029
:1045500004003d00370007007e805700c0ff0700c1
:1045600003003700330007007e805700cfff0700ad
:10457000dfb697000d00e0000c0035006fb2970029
:10458000ffb297000fbb97009fbb97001000200061
:10459000010020006011b8000002720081827200e8
:1045a00002037300838373001b0007000c06e800fe
:1045b00001042000810f5600e0ff3a000d00e000ea
:1045c00004003d000802be000a03be007e805700c2
:1045d000a3ff07005fa897000000e00005003a0075
:1045e0001fb29700afb297003fb39700cfb39700c9
:1045f000090007006fb09700ffb097000fb9970050
:104600009fb997004f06be004f05be004f04be0085
:104610000080fa000000060001000700000006000c
:10462000a4b79f00b5b79f00c6b79f00d7b79f003c
:10463000000006004f09de0082817100b3b79f00c1
:104640004f01de008180400082807000a1b79f0092
:104650008fb097004f09de0000004000020070009c
:1046600090b79f007fa897004f01de008180400037
:104670008280700081b79f000d0007004f3ade0076
:104680000000400004007000f0af9f000800070029
:104690000402420085824a0006034b0087834b00d8
:1046a000dfff07000802be000a03be00000006008c
:1046b0002fb29700bfb297004fb39700dfb39700b8
:1046c00000000600881f780018002000881f78006e
:1046d00089ff07008f87e9004f047800000006007b
:1046e000801feb0084ff07008f87e90000000600b1
:1046f000889fbe008a9fbe00e00f5000e08f5800e8
:10470000e00f5900e08f59000c003d006044b800f4
:104710006055b8000000540081805c0002015d001b
:1047200083815d00180020001500070008003d008f
:10473000180007000004eb00050037000004eb0040
:104740000f00070002003d001200070018002000c3
:10475000dcff07000800e000060032006022b8001d
:104760006033b8000000520081805a0002015b00f3
:1047700083815b004f05be004f04be0000000600b1
:10478000e00f5200e08f5a00e00f5b00e08f5b000b
:10479000000006006044b8006055b80004025400f0
:1047a00085825c0006035d0087835d0000000600d3
:1047b000889fbe008a9fbe008c1f7800e00f5000cb
:1047c000e08f5800e00f5900e08f59000d003d00c8
:1047d0006044b8006055b8000000540081805c005f
:1047e00002015d0083815d001c0020000820e100c3
:1047f00009a8e1000ab0e1000bb8e1000d003d009e
:10480000080037000006eb00e00f5200e08f5a006e
:10481000e00f5b00e08f5b0006003d006044b800e5
:104820006055b8000402540085825c0006035d00f8
:1048300087835d00aaff07000c00e000060032003d
:104840006022b8006033b8000000520081805a0036
:1048500002015b0083815b004f0678004f05be00bc
:104860004f04be0000000600020250008382580080
:104870006100390003037100620032000503720019
:10488000590032000300e0005500330017003a00e1
:104890000100e0004b0032000208e1000600310098
:1048a000110009004288d800010178008001eb0066
:1048b0008000eb00000006006110e10055003200ae
:1048c0000002be00110009008280d800800278003a
:1048d00004007800110009004288d8000101780026
:1048e0008001eb008500780000000600889fbe0074
:1048f0008a9fbe008c9fbe000386cf000c06e90095
:104900008c1f78008c19dd00f00216000512de0005
:10491000848171000c11dd000003be008004eb00f7
:10492000053cde008c3bdd000532de008483730035
:104930000c33dd00070078008800780011000900c2
:104940004388d8000202b8000306b8008c824200f7
:1049500060854e008005eb000402530085825b00f9
:104960000a055c008b855c000b0033008000eb00c7
:104970004f0678000c21de00700516000a2ddd00c0
:104980000a0171008c29de004f06be004f05be00f3
:104990004f04be00000006000202420083824a006b
:1049a00060054d00e0854d000000e9000b00e000cf
:1049b000eeff3d000202420083824a000000e9004f
:1049c000eaff37000000e000120032001100090089
:1049d0000280d800010178008000eb000000060092
:1049e0000401be00010037006011b8001000200073
:1049f0008000eb00000006000001be006000b8006f
:104a0000000006000001be00f0ff2f00f1ff2f00a4
:104a1000000006006011b8000000060092ff0700c9
:104a20000200be00000006008c9fbe008a9fbe00f0
:104a3000889fbe00ca0107000bf0a20004003700e7
:104a40008c9fbe008a9fbe00889fbe00c4010700e5
:104a50000c48e1000b003a000c40e100020032007b
:104a60008b010700400037008b066d003e003200ce
:104a70000af0a100f3012000f2ff2f006110b9003d
:104a8000390037000c40e100370032000940e100f6
:104a9000010036007e0107008a856d00cf5dde00d3
:104aa0000b0575000006eb008804fd008904540026
:104ab000010032007d0107000a04e00011003a0005
:104ac0000800e00028003200040040008580480013
:104ad00006014900878149000358a30018003200ed
:104ae0008301d1000281d3008180d3000080d300f4
:104af0000c86d30001003900610676000804e80046
:104b00001800370004005000858058000601590045
:104b100087815900060031000af0a2000c06ea0065
:104b200060001800e080180060011900e0811900a1
:104b300003003a000004eb000005eb000a00370018
:104b40000348a30007003a000c0646000000480096
:104b50008180480002014900838149000804e9007e
:104b6000f7ff3700af013700c90137008c9fbe0047
:104b70008a9fbe00889fbe00790107000b056d006b
:104b80000940e1000a003a000800e000020032009b
:104b90000c40e10006003a000af0a1000c04780085
:104ba000f3012000f2ff2f006110b9009d003700d3
:104bb0000c40e1009b0032000800e0009900320048
:104bc0000c48e10002003a000004eb00030037004b
:104bd0000900e00004003a000c0478006000b8000e
:104be0006011b8008f0037000348a30006003a00a8
:104bf0000000400081804800020149008381490093
:104c00000804e900f8ff37000748a30006003a004f
:104c10000402420085824a0006034b0087834b0052
:104c20008904e900f8ff3700fd3f20008d8454001f
:104c3000090454008a1f7800881f78000004780057
:104c40008104780002057800830578006000b800d0
:104c50006011b8000d04200005003700080444006e
:104c600089844c000a054d008b854d0008003100f9
:104c70000404540085845c0006055d0087855d00a2
:104c80008381d2008d06d300f4ff3b00070037007c
:104c90000404440085844c0006054d0087854d00c2
:104ca0008381d2008d06d300ecff3b000804440052
:104cb00089844c000a054d008b854d0008003100a9
:104cc0000404540085845c0006055d0087855d0052
:104cd0000281d2008d06d300f4ff3b0007003700ad
:104ce0000404440085844c0006054d0087854d0072
:104cf0000281d2008d06d300ecff3b000804440083
:104d000089844c000a054d008b854d000800310058
:104d10000404540085845c0006055d0087855d0001
:104d20008180d2008d06d300f4ff3b0007003700de
:104d30000404440085844c0006054d0087854d0021
:104d40008180d2008d06d300ecff3b0008044400b4
:104d500089844c000a054d008b854d000800310008
:104d60000404540085845c0006055d0087855d00b1
:104d70000080d2008d06d300f4ff3b00070037000f
:104d80000404440085844c0006054d0087854d00d1
:104d90000080d2008d06d300ecff3b000b00e0004a
:104da00004003d000404440085844c0006054d00c9
:104db00087854d000006eb008301d1000281d300fe
:104dc0008180d3000080d3000c86d3008301d10002
:104dd0000281d3008180d3000080d3000c86d300f1
:104de000890474008b0575008b8474000100320007
:104df000610676004f0478004f0578000348a30051
:104e000007003a000c064600000048008180480078
:104e100002014900838149000804e900f7ff3700d7
:104e2000000137001a0137008c9fbe008a9fbe0028
:104e3000889fbe00ca0007000b056d008a05780038
:104e40000c40e10008003a000900e00082003a004e
:104e50000af0a1000c047800f3012000f2ff2f00fb
:104e60006110b9007c0037000c48e10004003a00f2
:104e7000870007000900e00077003a00f4ff3700e0
:104e80000800e000740032000900e00002003a006f
:104e90007f00070070003700ed3f20008d84540034
:104ea000090444008a1f7800881f7800871f780053
:104eb000861f7800851f7800841f7800cb19dd00dd
:104ec000c515de008b8571004b11dd00450dde0040
:104ed0000a057100cb08dd00c504de00898470007e
:104ee0004b04dd000440b8000546b8008c8040004b
:104ef00060814e00044eb8008c8040000d014900d6
:104f00008001eb000318ad000456b8000c0141000d
:104f10008d8149000002eb000420ad000646b80078
:104f20000c0141008d81490060024a00054eb80025
:104f30000c0141008d81490060024a000556b8000d
:104f40008c8141000d024a008002eb000528ad0073
:104f50000746b8008c8141000d024a00e0824a00f9
:104f6000064eb8008c8141000d024a00e0824a00e2
:104f70004f0678000c5eb8008c8141000d024a009b
:104f8000e0824a000656b8000c0242008d824a00b8
:104f90000003eb000630ad00074eb8000c024200e3
:104fa0008d824a0060034b004f0678000c5eb8000b
:104fb0000c0242008d824a0060034b000756b80085
:104fc0008c8242000d034b008003eb000738ad00dc
:104fd0004f0678000c5eb8008c8242000d034b0037
:104fe000e0834b004f0678000c5eb8000c034300d2
:104ff0008d834b004f0478004f0578000748a300cd
:105000000a003a0000004000818048000201490087
:105010008381490004024a0085824a0006034b004e
:1050200087834b000804e900f4ff3700030678008b
:10503000808070008280700001003200610676007e
:105040008701780006017800850078000400780068
:1050500088047800780037008d0037008c06460001
:1050600002003a000000a6000000060060004800b0
:10507000e080480060014900e08149000350a6003b
:10508000000006008301d1000804e80000000600cb
:105090000002fd008102fd000203fd008303fd000c
:1050a0008804fd008a05fd00000006007048e1004c
:1050b0001a0039007d0320000d48e1000a00390084
:1050c00081057000830671008c8575008d857500e3
:1050d0000006eb000cd8e700610676006000b8001f
:1050e0006011b800000006007048e1000b003900b4
:1050f0008c057800000678000100780082007800b6
:10510000030178008001eb0003d8e7006106760018
:10511000f0845400f4ff3a00000006006160e100f2
:105120000c48ad00f08514008b06dd000966de003a
:105130000d0676008b0edd000900de000d0070000c
:105140008b16dd008908de008d8070008b1edd006f
:105150000911de000d0171008919de000000060052
:105160000d002800fc7f20000d856100441cde003e
:10517000ef8161000c046400010032000340a000d4
:105180008d856300c43cde00ef8363008c84640083
:10519000010032000740a0000c40e10006003a0088
:1051a000ef866100828676008186760080867600b2
:1051b00001003200180037000c48e10007003a00f7
:1051c000ef86630086867600858676008486760084
:1051d00002003200aeff07000f0037000348a300b3
:1051e00005003a008106700082867600838676008c
:1051f000010032000804e8000748a30005003a0057
:105200008506720086867600878676000100320069
:105210008904e80000000600cf047800cf0578007c
:105220001b0037000002780081027800020378003a
:1052300083037800880478000cf0a70087ff07003c
:10524000fd7f20000d40e100040035000d047800d2
:105250006000b8006011b8000d0037000800e000e1
:105260000b003c00040078008500780006017800ff
:1052700087017800e18414008cff07000cf0a70080
:1052800076ff07000004eb000340a7000804e800d5
:105290004444dd006fc56100880175004f04be0005
:1052a0004f05be004f06be0000000600889fbe00ee
:1052b0008a9fbe008c9fbe000404be000605be008f
:1052c000809fbe00829fbe00210007000406780078
:1052d0000800be000a01be001d0007008406780019
:1052e0004f03be004f02be008d4f76007fb0970087
:1052f00013003300f0ff2f008b8f6b0006003b0084
:105300000d0666000c00a7000a00370007f0a60093
:10531000100020000a003700880f5200898f5a00c1
:105320008a0f5b008b8f5b000300390010002000a8
:1053300001003e000000200007f0a7000000ea0086
:105340004f06be004f05be004f04be000000060021
:1053500005ff270005826100070032000428e100f4
:1053600001003200240005000600070001003a0099
:10537000440005000408050002000700f9ff3a0098
:10538000140005006f8261008102700085027100c7
:105390008502720000000600800078005002be0006
:1053a0005003be004439de00f700b200f37f200056
:1053b00003016100090032000218e10016003a0002
:1053c000850172008301730083817300000820004f
:1053d00015003a00400020001300370085017200dc
:1053e000830173008381730005003a0004a8be00a6
:1053f00006a8be00100020000b0037000201e900e3
:105400000402420085824a0006034b0087834b005a
:105410000748a300f9ff32000740a00004a8be001f
:1054200006a8be002000200080009800920098008e
:1054300000000600680447000294be000094be000d
:10544000fc0447008694be008494be0009007800e6
:10545000d1ff070008007800cfff0700990078000f
